{
  "_format": "hh-sol-artifact-1",
  "contractName": "OrganChain",
  "sourceName": "contracts/OrganChain.sol",
  "abi": [
    {
      "inputs": [],
      "stateMutability": "nonpayable",
      "type": "constructor"
    },
    {
      "inputs": [
        {
          "internalType": "address",
          "name": "_donor_addr",
          "type": "address"
        },
        {
          "internalType": "string",
          "name": "_organ",
          "type": "string"
        },
        {
          "internalType": "string",
          "name": "_bloodgroup",
          "type": "string"
        }
      ],
      "name": "addDonor",
      "outputs": [],
      "stateMutability": "payable",
      "type": "function"
    },
    {
      "inputs": [
        {
          "internalType": "address",
          "name": "_recipient_addr",
          "type": "address"
        },
        {
          "internalType": "address",
          "name": "_hospital_addr",
          "type": "address"
        },
        {
          "internalType": "string",
          "name": "_organ",
          "type": "string"
        },
        {
          "internalType": "string",
          "name": "_bloodgroup",
          "type": "string"
        }
      ],
      "name": "addRecipient",
      "outputs": [],
      "stateMutability": "payable",
      "type": "function"
    },
    {
      "inputs": [],
      "name": "getAllDonorData",
      "outputs": [
        {
          "internalType": "address[]",
          "name": "",
          "type": "address[]"
        },
        {
          "internalType": "string[]",
          "name": "",
          "type": "string[]"
        },
        {
          "internalType": "string[]",
          "name": "",
          "type": "string[]"
        },
        {
          "internalType": "bool[]",
          "name": "",
          "type": "bool[]"
        },
        {
          "internalType": "address[]",
          "name": "",
          "type": "address[]"
        }
      ],
      "stateMutability": "view",
      "type": "function"
    },
    {
      "inputs": [],
      "name": "getAllRecipientData",
      "outputs": [
        {
          "internalType": "address[]",
          "name": "",
          "type": "address[]"
        },
        {
          "internalType": "address[]",
          "name": "",
          "type": "address[]"
        },
        {
          "internalType": "string[]",
          "name": "",
          "type": "string[]"
        },
        {
          "internalType": "string[]",
          "name": "",
          "type": "string[]"
        },
        {
          "internalType": "bool[]",
          "name": "",
          "type": "bool[]"
        }
      ],
      "stateMutability": "view",
      "type": "function"
    },
    {
      "inputs": [],
      "name": "getAllTransplantData",
      "outputs": [
        {
          "internalType": "address[]",
          "name": "",
          "type": "address[]"
        },
        {
          "internalType": "address[]",
          "name": "",
          "type": "address[]"
        },
        {
          "internalType": "bool[]",
          "name": "",
          "type": "bool[]"
        }
      ],
      "stateMutability": "view",
      "type": "function"
    },
    {
      "inputs": [
        {
          "internalType": "address",
          "name": "_donor_addr",
          "type": "address"
        }
      ],
      "name": "getDonor",
      "outputs": [
        {
          "internalType": "string",
          "name": "",
          "type": "string"
        },
        {
          "internalType": "string",
          "name": "",
          "type": "string"
        },
        {
          "internalType": "bool",
          "name": "",
          "type": "bool"
        },
        {
          "internalType": "address",
          "name": "",
          "type": "address"
        }
      ],
      "stateMutability": "view",
      "type": "function"
    },
    {
      "inputs": [
        {
          "internalType": "address",
          "name": "_recipient_addr",
          "type": "address"
        }
      ],
      "name": "getMatchedDonor",
      "outputs": [
        {
          "internalType": "address",
          "name": "",
          "type": "address"
        }
      ],
      "stateMutability": "view",
      "type": "function"
    },
    {
      "inputs": [
        {
          "internalType": "address",
          "name": "_recipient_addr",
          "type": "address"
        }
      ],
      "name": "getRecipient",
      "outputs": [
        {
          "internalType": "address",
          "name": "",
          "type": "address"
        },
        {
          "internalType": "string",
          "name": "",
          "type": "string"
        },
        {
          "internalType": "string",
          "name": "",
          "type": "string"
        },
        {
          "internalType": "bool",
          "name": "",
          "type": "bool"
        }
      ],
      "stateMutability": "view",
      "type": "function"
    },
    {
      "inputs": [
        {
          "internalType": "address",
          "name": "_hospital_addr",
          "type": "address"
        }
      ],
      "name": "getRecipientCount",
      "outputs": [
        {
          "internalType": "uint256",
          "name": "",
          "type": "uint256"
        }
      ],
      "stateMutability": "view",
      "type": "function"
    },
    {
      "inputs": [
        {
          "internalType": "address",
          "name": "_hospital_addr",
          "type": "address"
        },
        {
          "internalType": "uint256",
          "name": "i",
          "type": "uint256"
        }
      ],
      "name": "getRecipientDetail",
      "outputs": [
        {
          "internalType": "address",
          "name": "",
          "type": "address"
        },
        {
          "internalType": "string",
          "name": "",
          "type": "string"
        },
        {
          "internalType": "string",
          "name": "",
          "type": "string"
        }
      ],
      "stateMutability": "view",
      "type": "function"
    },
    {
      "inputs": [
        {
          "internalType": "address",
          "name": "_recipient_addr",
          "type": "address"
        }
      ],
      "name": "isMatchFound",
      "outputs": [
        {
          "internalType": "bool",
          "name": "",
          "type": "bool"
        }
      ],
      "stateMutability": "view",
      "type": "function"
    },
    {
      "inputs": [
        {
          "internalType": "address",
          "name": "_recipient_addr",
          "type": "address"
        }
      ],
      "name": "transplantMatch",
      "outputs": [],
      "stateMutability": "payable",
      "type": "function"
    }
  ],
  "bytecode": "0x608060405234801561001057600080fd5b50336000806101000a81548173ffffffffffffffffffffffffffffffffffffffff021916908373ffffffffffffffffffffffffffffffffffffffff160217905550613890806100606000396000f3fe6080604052600436106100a75760003560e01c80639d0de035116100645780639d0de035146101f3578063b02d6cf61461020f578063b289024e1461024c578063bf4ab6cd1461027b578063c39aeabc146102a8578063f3f7bb52146102e5576100a7565b806362812a39146100ac578063681bc108146100ec5780636b48a87d1461012b578063784c413d14610147578063837b1c5a1461018457806396c59043146101b3575b600080fd5b3480156100b857600080fd5b506100d360048036038101906100ce9190612afe565b610301565b6040516100e39493929190612be5565b60405180910390f35b3480156100f857600080fd5b50610113600480360381019061010e9190612c6e565b6105bf565b60405161012293929190612cae565b60405180910390f35b61014560048036038101906101409190612e28565b610a3e565b005b34801561015357600080fd5b5061016e60048036038101906101699190612afe565b610dab565b60405161017b9190612eb3565b60405180910390f35b34801561019057600080fd5b50610199610e17565b6040516101aa959493929190613156565b60405180910390f35b3480156101bf57600080fd5b506101da60048036038101906101d59190612afe565b611396565b6040516101ea94939291906131cc565b60405180910390f35b61020d6004803603810190610208919061321f565b611653565b005b34801561021b57600080fd5b5061023660048036038101906102319190612afe565b611a60565b60405161024391906132cd565b60405180910390f35b34801561025857600080fd5b50610261611aac565b6040516102729594939291906132e8565b60405180910390f35b34801561028757600080fd5b5061029061202b565b60405161029f9392919061335e565b60405180910390f35b3480156102b457600080fd5b506102cf60048036038101906102ca9190612afe565b612374565b6040516102dc91906133aa565b60405180910390f35b6102ff60048036038101906102fa9190612afe565b6123cd565b005b60006060806000600160008673ffffffffffffffffffffffffffffffffffffffff1673ffffffffffffffffffffffffffffffffffffffff16815260200190815260200160002060040160019054906101000a900460ff1661036157600080fd5b600160008673ffffffffffffffffffffffffffffffffffffffff1673ffffffffffffffffffffffffffffffffffffffff16815260200190815260200160002060010160009054906101000a900473ffffffffffffffffffffffffffffffffffffffff16600160008773ffffffffffffffffffffffffffffffffffffffff1673ffffffffffffffffffffffffffffffffffffffff168152602001908152602001600020600201600160008873ffffffffffffffffffffffffffffffffffffffff1673ffffffffffffffffffffffffffffffffffffffff168152602001908152602001600020600301600160008973ffffffffffffffffffffffffffffffffffffffff1673ffffffffffffffffffffffffffffffffffffffff16815260200190815260200160002060040160009054906101000a900460ff168280546104a4906133f4565b80601f01602080910402602001604051908101604052809291908181526020018280546104d0906133f4565b801561051d5780601f106104f25761010080835404028352916020019161051d565b820191906000526020600020905b81548152906001019060200180831161050057829003601f168201915b50505050509250818054610530906133f4565b80601f016020809104026020016040519081016040528092919081815260200182805461055c906133f4565b80156105a95780601f1061057e576101008083540402835291602001916105a9565b820191906000526020600020905b81548152906001019060200180831161058c57829003601f168201915b5050505050915093509350935093509193509193565b600060608060016000600360008873ffffffffffffffffffffffffffffffffffffffff1673ffffffffffffffffffffffffffffffffffffffff168152602001908152602001600020868154811061061957610618613425565b5b9060005260206000200160009054906101000a900473ffffffffffffffffffffffffffffffffffffffff1673ffffffffffffffffffffffffffffffffffffffff1673ffffffffffffffffffffffffffffffffffffffff16815260200190815260200160002060040160009054906101000a900460ff16610a0e5760016000600360008873ffffffffffffffffffffffffffffffffffffffff1673ffffffffffffffffffffffffffffffffffffffff16815260200190815260200160002086815481106106e8576106e7613425565b5b9060005260206000200160009054906101000a900473ffffffffffffffffffffffffffffffffffffffff1673ffffffffffffffffffffffffffffffffffffffff1673ffffffffffffffffffffffffffffffffffffffff16815260200190815260200160002060000160009054906101000a900473ffffffffffffffffffffffffffffffffffffffff1660016000600360008973ffffffffffffffffffffffffffffffffffffffff1673ffffffffffffffffffffffffffffffffffffffff16815260200190815260200160002087815481106107c6576107c5613425565b5b9060005260206000200160009054906101000a900473ffffffffffffffffffffffffffffffffffffffff1673ffffffffffffffffffffffffffffffffffffffff1673ffffffffffffffffffffffffffffffffffffffff16815260200190815260200160002060020160016000600360008a73ffffffffffffffffffffffffffffffffffffffff1673ffffffffffffffffffffffffffffffffffffffff168152602001908152602001600020888154811061088357610882613425565b5b9060005260206000200160009054906101000a900473ffffffffffffffffffffffffffffffffffffffff1673ffffffffffffffffffffffffffffffffffffffff1673ffffffffffffffffffffffffffffffffffffffff1681526020019081526020016000206003018180546108f7906133f4565b80601f0160208091040260200160405190810160405280929190818152602001828054610923906133f4565b80156109705780601f1061094557610100808354040283529160200191610970565b820191906000526020600020905b81548152906001019060200180831161095357829003601f168201915b50505050509150808054610983906133f4565b80601f01602080910402602001604051908101604052809291908181526020018280546109af906133f4565b80156109fc5780601f106109d1576101008083540402835291602001916109fc565b820191906000526020600020905b8154815290600101906020018083116109df57829003601f168201915b50505050509050925092509250610a37565b600060405180602001604052806000815250604051806020016040528060008152509250925092505b9250925092565b82600260008273ffffffffffffffffffffffffffffffffffffffff1673ffffffffffffffffffffffffffffffffffffffff16815260200190815260200160002060040160019054906101000a900460ff1615610a9957600080fd5b83600160008273ffffffffffffffffffffffffffffffffffffffff1673ffffffffffffffffffffffffffffffffffffffff16815260200190815260200160002060040160019054906101000a900460ff1615610af457600080fd5b6000341015610b38576040517f08c379a0000000000000000000000000000000000000000000000000000000008152600401610b2f906134a0565b60405180910390fd5b60008054906101000a900473ffffffffffffffffffffffffffffffffffffffff1673ffffffffffffffffffffffffffffffffffffffff166108fc349081150290604051600060405180830381858888f19350505050158015610b9e573d6000803e3d6000fd5b5060006040518060c001604052808773ffffffffffffffffffffffffffffffffffffffff168152602001600073ffffffffffffffffffffffffffffffffffffffff16815260200186815260200185815260200160001515815260200160011515815250905080600260008873ffffffffffffffffffffffffffffffffffffffff1673ffffffffffffffffffffffffffffffffffffffff16815260200190815260200160002060008201518160000160006101000a81548173ffffffffffffffffffffffffffffffffffffffff021916908373ffffffffffffffffffffffffffffffffffffffff16021790555060208201518160010160006101000a81548173ffffffffffffffffffffffffffffffffffffffff021916908373ffffffffffffffffffffffffffffffffffffffff1602179055506040820151816002019081610ce6919061366c565b506060820151816003019081610cfc919061366c565b5060808201518160040160006101000a81548160ff02191690831515021790555060a08201518160040160016101000a81548160ff0219169083151502179055509050506006869080600181540180825580915050600190039060005260206000200160009091909190916101000a81548173ffffffffffffffffffffffffffffffffffffffff021916908373ffffffffffffffffffffffffffffffffffffffff160217905550505050505050565b6000600460008373ffffffffffffffffffffffffffffffffffffffff1673ffffffffffffffffffffffffffffffffffffffff16815260200190815260200160002060010160009054906101000a900473ffffffffffffffffffffffffffffffffffffffff169050919050565b60608060608060606000600680549050905060008167ffffffffffffffff811115610e4557610e44612cfd565b5b604051908082528060200260200182016040528015610e735781602001602082028036833780820191505090505b50905060008267ffffffffffffffff811115610e9257610e91612cfd565b5b604051908082528060200260200182016040528015610ec557816020015b6060815260200190600190039081610eb05790505b50905060008367ffffffffffffffff811115610ee457610ee3612cfd565b5b604051908082528060200260200182016040528015610f1757816020015b6060815260200190600190039081610f025790505b50905060008467ffffffffffffffff811115610f3657610f35612cfd565b5b604051908082528060200260200182016040528015610f645781602001602082028036833780820191505090505b50905060008567ffffffffffffffff811115610f8357610f82612cfd565b5b604051908082528060200260200182016040528015610fb15781602001602082028036833780820191505090505b50905060005b868110156113795760006002600060068481548110610fd957610fd8613425565b5b9060005260206000200160009054906101000a900473ffffffffffffffffffffffffffffffffffffffff1673ffffffffffffffffffffffffffffffffffffffff1673ffffffffffffffffffffffffffffffffffffffff1681526020019081526020016000206040518060c00160405290816000820160009054906101000a900473ffffffffffffffffffffffffffffffffffffffff1673ffffffffffffffffffffffffffffffffffffffff1673ffffffffffffffffffffffffffffffffffffffff1681526020016001820160009054906101000a900473ffffffffffffffffffffffffffffffffffffffff1673ffffffffffffffffffffffffffffffffffffffff1673ffffffffffffffffffffffffffffffffffffffff168152602001600282018054611105906133f4565b80601f0160208091040260200160405190810160405280929190818152602001828054611131906133f4565b801561117e5780601f106111535761010080835404028352916020019161117e565b820191906000526020600020905b81548152906001019060200180831161116157829003601f168201915b50505050508152602001600382018054611197906133f4565b80601f01602080910402602001604051908101604052809291908181526020018280546111c3906133f4565b80156112105780601f106111e557610100808354040283529160200191611210565b820191906000526020600020905b8154815290600101906020018083116111f357829003601f168201915b505050505081526020016004820160009054906101000a900460ff161515151581526020016004820160019054906101000a900460ff1615151515815250509050806000015187838151811061126957611268613425565b5b602002602001019073ffffffffffffffffffffffffffffffffffffffff16908173ffffffffffffffffffffffffffffffffffffffff168152505080604001518683815181106112bb576112ba613425565b5b602002602001018190525080606001518583815181106112de576112dd613425565b5b6020026020010181905250806080015184838151811061130157611300613425565b5b602002602001019015159081151581525050806020015183838151811061132b5761132a613425565b5b602002602001019073ffffffffffffffffffffffffffffffffffffffff16908173ffffffffffffffffffffffffffffffffffffffff16815250505080806113719061376d565b915050610fb7565b5084848484849a509a509a509a509a505050505050509091929394565b606080600080600260008673ffffffffffffffffffffffffffffffffffffffff1673ffffffffffffffffffffffffffffffffffffffff16815260200190815260200160002060040160019054906101000a900460ff166113f557600080fd5b600260008673ffffffffffffffffffffffffffffffffffffffff1673ffffffffffffffffffffffffffffffffffffffff168152602001908152602001600020600201600260008773ffffffffffffffffffffffffffffffffffffffff1673ffffffffffffffffffffffffffffffffffffffff168152602001908152602001600020600301600260008873ffffffffffffffffffffffffffffffffffffffff1673ffffffffffffffffffffffffffffffffffffffff16815260200190815260200160002060040160009054906101000a900460ff16600260008973ffffffffffffffffffffffffffffffffffffffff1673ffffffffffffffffffffffffffffffffffffffff16815260200190815260200160002060010160009054906101000a900473ffffffffffffffffffffffffffffffffffffffff16838054611538906133f4565b80601f0160208091040260200160405190810160405280929190818152602001828054611564906133f4565b80156115b15780601f10611586576101008083540402835291602001916115b1565b820191906000526020600020905b81548152906001019060200180831161159457829003601f168201915b505050505093508280546115c4906133f4565b80601f01602080910402602001604051908101604052809291908181526020018280546115f0906133f4565b801561163d5780601f106116125761010080835404028352916020019161163d565b820191906000526020600020905b81548152906001019060200180831161162057829003601f168201915b5050505050925093509350935093509193509193565b83600160008273ffffffffffffffffffffffffffffffffffffffff1673ffffffffffffffffffffffffffffffffffffffff16815260200190815260200160002060040160019054906101000a900460ff16156116ae57600080fd5b84600260008273ffffffffffffffffffffffffffffffffffffffff1673ffffffffffffffffffffffffffffffffffffffff16815260200190815260200160002060040160019054906101000a900460ff161561170957600080fd5b600034101561174d576040517f08c379a0000000000000000000000000000000000000000000000000000000008152600401611744906134a0565b60405180910390fd5b60008054906101000a900473ffffffffffffffffffffffffffffffffffffffff1673ffffffffffffffffffffffffffffffffffffffff166108fc349081150290604051600060405180830381858888f193505050501580156117b3573d6000803e3d6000fd5b5060006040518060c001604052808873ffffffffffffffffffffffffffffffffffffffff1681526020018773ffffffffffffffffffffffffffffffffffffffff16815260200186815260200185815260200160001515815260200160011515815250905080600160008973ffffffffffffffffffffffffffffffffffffffff1673ffffffffffffffffffffffffffffffffffffffff16815260200190815260200160002060008201518160000160006101000a81548173ffffffffffffffffffffffffffffffffffffffff021916908373ffffffffffffffffffffffffffffffffffffffff16021790555060208201518160010160006101000a81548173ffffffffffffffffffffffffffffffffffffffff021916908373ffffffffffffffffffffffffffffffffffffffff16021790555060408201518160020190816118fa919061366c565b506060820151816003019081611910919061366c565b5060808201518160040160006101000a81548160ff02191690831515021790555060a08201518160040160016101000a81548160ff0219169083151502179055509050506005879080600181540180825580915050600190039060005260206000200160009091909190916101000a81548173ffffffffffffffffffffffffffffffffffffffff021916908373ffffffffffffffffffffffffffffffffffffffff160217905550600360008773ffffffffffffffffffffffffffffffffffffffff1673ffffffffffffffffffffffffffffffffffffffff168152602001908152602001600020879080600181540180825580915050600190039060005260206000200160009091909190916101000a81548173ffffffffffffffffffffffffffffffffffffffff021916908373ffffffffffffffffffffffffffffffffffffffff16021790555050505050505050565b6000600360008373ffffffffffffffffffffffffffffffffffffffff1673ffffffffffffffffffffffffffffffffffffffff168152602001908152602001600020805490509050919050565b60608060608060606000600580549050905060008167ffffffffffffffff811115611ada57611ad9612cfd565b5b604051908082528060200260200182016040528015611b085781602001602082028036833780820191505090505b50905060008267ffffffffffffffff811115611b2757611b26612cfd565b5b604051908082528060200260200182016040528015611b555781602001602082028036833780820191505090505b50905060008367ffffffffffffffff811115611b7457611b73612cfd565b5b604051908082528060200260200182016040528015611ba757816020015b6060815260200190600190039081611b925790505b50905060008467ffffffffffffffff811115611bc657611bc5612cfd565b5b604051908082528060200260200182016040528015611bf957816020015b6060815260200190600190039081611be45790505b50905060008567ffffffffffffffff811115611c1857611c17612cfd565b5b604051908082528060200260200182016040528015611c465781602001602082028036833780820191505090505b50905060005b8681101561200e5760006001600060058481548110611c6e57611c6d613425565b5b9060005260206000200160009054906101000a900473ffffffffffffffffffffffffffffffffffffffff1673ffffffffffffffffffffffffffffffffffffffff1673ffffffffffffffffffffffffffffffffffffffff1681526020019081526020016000206040518060c00160405290816000820160009054906101000a900473ffffffffffffffffffffffffffffffffffffffff1673ffffffffffffffffffffffffffffffffffffffff1673ffffffffffffffffffffffffffffffffffffffff1681526020016001820160009054906101000a900473ffffffffffffffffffffffffffffffffffffffff1673ffffffffffffffffffffffffffffffffffffffff1673ffffffffffffffffffffffffffffffffffffffff168152602001600282018054611d9a906133f4565b80601f0160208091040260200160405190810160405280929190818152602001828054611dc6906133f4565b8015611e135780601f10611de857610100808354040283529160200191611e13565b820191906000526020600020905b815481529060010190602001808311611df657829003601f168201915b50505050508152602001600382018054611e2c906133f4565b80601f0160208091040260200160405190810160405280929190818152602001828054611e58906133f4565b8015611ea55780601f10611e7a57610100808354040283529160200191611ea5565b820191906000526020600020905b815481529060010190602001808311611e8857829003601f168201915b505050505081526020016004820160009054906101000a900460ff161515151581526020016004820160019054906101000a900460ff16151515158152505090508060000151878381518110611efe57611efd613425565b5b602002602001019073ffffffffffffffffffffffffffffffffffffffff16908173ffffffffffffffffffffffffffffffffffffffff16815250508060200151868381518110611f5057611f4f613425565b5b602002602001019073ffffffffffffffffffffffffffffffffffffffff16908173ffffffffffffffffffffffffffffffffffffffff16815250508060400151858381518110611fa257611fa1613425565b5b60200260200101819052508060600151848381518110611fc557611fc4613425565b5b60200260200101819052508060800151838381518110611fe857611fe7613425565b5b6020026020010190151590811515815250505080806120069061376d565b915050611c4c565b5084848484849a509a509a509a509a505050505050509091929394565b60608060606000600580549050905060008167ffffffffffffffff81111561205657612055612cfd565b5b6040519080825280602002602001820160405280156120845781602001602082028036833780820191505090505b50905060008267ffffffffffffffff8111156120a3576120a2612cfd565b5b6040519080825280602002602001820160405280156120d15781602001602082028036833780820191505090505b50905060008367ffffffffffffffff8111156120f0576120ef612cfd565b5b60405190808252806020026020018201604052801561211e5781602001602082028036833780820191505090505b50905060005b84811015612361576000600460006005848154811061214657612145613425565b5b9060005260206000200160009054906101000a900473ffffffffffffffffffffffffffffffffffffffff1673ffffffffffffffffffffffffffffffffffffffff1673ffffffffffffffffffffffffffffffffffffffff1681526020019081526020016000206040518060600160405290816000820160009054906101000a900473ffffffffffffffffffffffffffffffffffffffff1673ffffffffffffffffffffffffffffffffffffffff1673ffffffffffffffffffffffffffffffffffffffff1681526020016001820160009054906101000a900473ffffffffffffffffffffffffffffffffffffffff1673ffffffffffffffffffffffffffffffffffffffff1673ffffffffffffffffffffffffffffffffffffffff1681526020016001820160149054906101000a900460ff1615151515815250509050806000015185838151811061229757612296613425565b5b602002602001019073ffffffffffffffffffffffffffffffffffffffff16908173ffffffffffffffffffffffffffffffffffffffff168152505080602001518483815181106122e9576122e8613425565b5b602002602001019073ffffffffffffffffffffffffffffffffffffffff16908173ffffffffffffffffffffffffffffffffffffffff1681525050806040015183838151811061233b5761233a613425565b5b6020026020010190151590811515815250505080806123599061376d565b915050612124565b5082828296509650965050505050909192565b6000600160008373ffffffffffffffffffffffffffffffffffffffff1673ffffffffffffffffffffffffffffffffffffffff16815260200190815260200160002060040160009054906101000a900460ff169050919050565b6000341015612411576040517f08c379a0000000000000000000000000000000000000000000000000000000008152600401612408906134a0565b60405180910390fd5b60008054906101000a900473ffffffffffffffffffffffffffffffffffffffff1673ffffffffffffffffffffffffffffffffffffffff166108fc349081150290604051600060405180830381858888f19350505050158015612477573d6000803e3d6000fd5b5060005b600680549050811015612a885760026000600683815481106124a05761249f613425565b5b9060005260206000200160009054906101000a900473ffffffffffffffffffffffffffffffffffffffff1673ffffffffffffffffffffffffffffffffffffffff1673ffffffffffffffffffffffffffffffffffffffff16815260200190815260200160002060040160009054906101000a900460ff1615801561262e5750600260006006838154811061253657612535613425565b5b9060005260206000200160009054906101000a900473ffffffffffffffffffffffffffffffffffffffff1673ffffffffffffffffffffffffffffffffffffffff1673ffffffffffffffffffffffffffffffffffffffff1681526020019081526020016000206002016040516020016125ae9190613843565b60405160208183030381529060405280519060200120600160008473ffffffffffffffffffffffffffffffffffffffff1673ffffffffffffffffffffffffffffffffffffffff1681526020019081526020016000206002016040516020016126169190613843565b60405160208183030381529060405280519060200120145b80156127455750600260006006838154811061264d5761264c613425565b5b9060005260206000200160009054906101000a900473ffffffffffffffffffffffffffffffffffffffff1673ffffffffffffffffffffffffffffffffffffffff1673ffffffffffffffffffffffffffffffffffffffff1681526020019081526020016000206003016040516020016126c59190613843565b60405160208183030381529060405280519060200120600160008473ffffffffffffffffffffffffffffffffffffffff1673ffffffffffffffffffffffffffffffffffffffff16815260200190815260200160002060030160405160200161272d9190613843565b60405160208183030381529060405280519060200120145b15612a755760405180606001604052808373ffffffffffffffffffffffffffffffffffffffff1681526020016006838154811061278557612784613425565b5b9060005260206000200160009054906101000a900473ffffffffffffffffffffffffffffffffffffffff1673ffffffffffffffffffffffffffffffffffffffff16815260200160011515815250600460008473ffffffffffffffffffffffffffffffffffffffff1673ffffffffffffffffffffffffffffffffffffffff16815260200190815260200160002060008201518160000160006101000a81548173ffffffffffffffffffffffffffffffffffffffff021916908373ffffffffffffffffffffffffffffffffffffffff16021790555060208201518160010160006101000a81548173ffffffffffffffffffffffffffffffffffffffff021916908373ffffffffffffffffffffffffffffffffffffffff16021790555060408201518160010160146101000a81548160ff0219169083151502179055509050508160026000600684815481106128db576128da613425565b5b9060005260206000200160009054906101000a900473ffffffffffffffffffffffffffffffffffffffff1673ffffffffffffffffffffffffffffffffffffffff1673ffffffffffffffffffffffffffffffffffffffff16815260200190815260200160002060010160006101000a81548173ffffffffffffffffffffffffffffffffffffffff021916908373ffffffffffffffffffffffffffffffffffffffff16021790555060018060008473ffffffffffffffffffffffffffffffffffffffff1673ffffffffffffffffffffffffffffffffffffffff16815260200190815260200160002060040160006101000a81548160ff021916908315150217905550600160026000600684815481106129f5576129f4613425565b5b9060005260206000200160009054906101000a900473ffffffffffffffffffffffffffffffffffffffff1673ffffffffffffffffffffffffffffffffffffffff1673ffffffffffffffffffffffffffffffffffffffff16815260200190815260200160002060040160006101000a81548160ff0219169083151502179055505b8080612a809061376d565b91505061247b565b5050565b6000604051905090565b600080fd5b600080fd5b600073ffffffffffffffffffffffffffffffffffffffff82169050919050565b6000612acb82612aa0565b9050919050565b612adb81612ac0565b8114612ae657600080fd5b50565b600081359050612af881612ad2565b92915050565b600060208284031215612b1457612b13612a96565b5b6000612b2284828501612ae9565b91505092915050565b612b3481612ac0565b82525050565b600081519050919050565b600082825260208201905092915050565b60005b83811015612b74578082015181840152602081019050612b59565b60008484015250505050565b6000601f19601f8301169050919050565b6000612b9c82612b3a565b612ba68185612b45565b9350612bb6818560208601612b56565b612bbf81612b80565b840191505092915050565b60008115159050919050565b612bdf81612bca565b82525050565b6000608082019050612bfa6000830187612b2b565b8181036020830152612c0c8186612b91565b90508181036040830152612c208185612b91565b9050612c2f6060830184612bd6565b95945050505050565b6000819050919050565b612c4b81612c38565b8114612c5657600080fd5b50565b600081359050612c6881612c42565b92915050565b60008060408385031215612c8557612c84612a96565b5b6000612c9385828601612ae9565b9250506020612ca485828601612c59565b9150509250929050565b6000606082019050612cc36000830186612b2b565b8181036020830152612cd58185612b91565b90508181036040830152612ce98184612b91565b9050949350505050565b600080fd5b600080fd5b7f4e487b7100000000000000000000000000000000000000000000000000000000600052604160045260246000fd5b612d3582612b80565b810181811067ffffffffffffffff82111715612d5457612d53612cfd565b5b80604052505050565b6000612d67612a8c565b9050612d738282612d2c565b919050565b600067ffffffffffffffff821115612d9357612d92612cfd565b5b612d9c82612b80565b9050602081019050919050565b82818337600083830152505050565b6000612dcb612dc684612d78565b612d5d565b905082815260208101848484011115612de757612de6612cf8565b5b612df2848285612da9565b509392505050565b600082601f830112612e0f57612e0e612cf3565b5b8135612e1f848260208601612db8565b91505092915050565b600080600060608486031215612e4157612e40612a96565b5b6000612e4f86828701612ae9565b935050602084013567ffffffffffffffff811115612e7057612e6f612a9b565b5b612e7c86828701612dfa565b925050604084013567ffffffffffffffff811115612e9d57612e9c612a9b565b5b612ea986828701612dfa565b9150509250925092565b6000602082019050612ec86000830184612b2b565b92915050565b600081519050919050565b600082825260208201905092915050565b6000819050602082019050919050565b612f0381612ac0565b82525050565b6000612f158383612efa565b60208301905092915050565b6000602082019050919050565b6000612f3982612ece565b612f438185612ed9565b9350612f4e83612eea565b8060005b83811015612f7f578151612f668882612f09565b9750612f7183612f21565b925050600181019050612f52565b5085935050505092915050565b600081519050919050565b600082825260208201905092915050565b6000819050602082019050919050565b600082825260208201905092915050565b6000612fd482612b3a565b612fde8185612fb8565b9350612fee818560208601612b56565b612ff781612b80565b840191505092915050565b600061300e8383612fc9565b905092915050565b6000602082019050919050565b600061302e82612f8c565b6130388185612f97565b93508360208202850161304a85612fa8565b8060005b8581101561308657848403895281516130678582613002565b945061307283613016565b925060208a0199505060018101905061304e565b50829750879550505050505092915050565b600081519050919050565b600082825260208201905092915050565b6000819050602082019050919050565b6130cd81612bca565b82525050565b60006130df83836130c4565b60208301905092915050565b6000602082019050919050565b600061310382613098565b61310d81856130a3565b9350613118836130b4565b8060005b8381101561314957815161313088826130d3565b975061313b836130eb565b92505060018101905061311c565b5085935050505092915050565b600060a08201905081810360008301526131708188612f2e565b905081810360208301526131848187613023565b905081810360408301526131988186613023565b905081810360608301526131ac81856130f8565b905081810360808301526131c08184612f2e565b90509695505050505050565b600060808201905081810360008301526131e68187612b91565b905081810360208301526131fa8186612b91565b90506132096040830185612bd6565b6132166060830184612b2b565b95945050505050565b6000806000806080858703121561323957613238612a96565b5b600061324787828801612ae9565b945050602061325887828801612ae9565b935050604085013567ffffffffffffffff81111561327957613278612a9b565b5b61328587828801612dfa565b925050606085013567ffffffffffffffff8111156132a6576132a5612a9b565b5b6132b287828801612dfa565b91505092959194509250565b6132c781612c38565b82525050565b60006020820190506132e260008301846132be565b92915050565b600060a08201905081810360008301526133028188612f2e565b905081810360208301526133168187612f2e565b9050818103604083015261332a8186613023565b9050818103606083015261333e8185613023565b9050818103608083015261335281846130f8565b90509695505050505050565b600060608201905081810360008301526133788186612f2e565b9050818103602083015261338c8185612f2e565b905081810360408301526133a081846130f8565b9050949350505050565b60006020820190506133bf6000830184612bd6565b92915050565b7f4e487b7100000000000000000000000000000000000000000000000000000000600052602260045260246000fd5b6000600282049050600182168061340c57607f821691505b60208210810361341f5761341e6133c5565b5b50919050565b7f4e487b7100000000000000000000000000000000000000000000000000000000600052603260045260246000fd5b7f506c65617365207061792067726561746572207468616e203020657468657200600082015250565b600061348a601f83612b45565b915061349582613454565b602082019050919050565b600060208201905081810360008301526134b98161347d565b9050919050565b60008190508160005260206000209050919050565b60006020601f8301049050919050565b600082821b905092915050565b6000600883026135227fffffffffffffffffffffffffffffffffffffffffffffffffffffffffffffffff826134e5565b61352c86836134e5565b95508019841693508086168417925050509392505050565b6000819050919050565b600061356961356461355f84612c38565b613544565b612c38565b9050919050565b6000819050919050565b6135838361354e565b61359761358f82613570565b8484546134f2565b825550505050565b600090565b6135ac61359f565b6135b781848461357a565b505050565b5b818110156135db576135d06000826135a4565b6001810190506135bd565b5050565b601f821115613620576135f1816134c0565b6135fa846134d5565b81016020851015613609578190505b61361d613615856134d5565b8301826135bc565b50505b505050565b600082821c905092915050565b600061364360001984600802613625565b1980831691505092915050565b600061365c8383613632565b9150826002028217905092915050565b61367582612b3a565b67ffffffffffffffff81111561368e5761368d612cfd565b5b61369882546133f4565b6136a38282856135df565b600060209050601f8311600181146136d657600084156136c4578287015190505b6136ce8582613650565b865550613736565b601f1984166136e4866134c0565b60005b8281101561370c578489015182556001820191506020850194506020810190506136e7565b868310156137295784890151613725601f891682613632565b8355505b6001600288020188555050505b505050505050565b7f4e487b7100000000000000000000000000000000000000000000000000000000600052601160045260246000fd5b600061377882612c38565b91507fffffffffffffffffffffffffffffffffffffffffffffffffffffffffffffffff82036137aa576137a961373e565b5b600182019050919050565b600081905092915050565b600081546137cd816133f4565b6137d781866137b5565b945060018216600081146137f257600181146138075761383a565b60ff198316865281151582028601935061383a565b613810856134c0565b60005b8381101561383257815481890152600182019150602081019050613813565b838801955050505b50505092915050565b600061384f82846137c0565b91508190509291505056fea264697066735822122046e7d9f9e5ec41d0db850cf42645b14dfe60bc032031efa4447571bdcdf4319664736f6c63430008110033",
  "linkReferences": {},
  "deployedLinkReferences": {}
}